S011000054657374466C6173682E7372656385
S113000093C0ADC0ACC0ABC0AAC0A9C0A8C0A7C0B3
S1130010A6C0A5C0A4C0D6C113C2A1C0A0C09FC021
S11300209EC09DC09CC06E616E00696E66000040FB
S11300307A10F35A00A0724E18090010A5D4E800F3
S113004000E87648170000E40B54020000CA9A3B0B
S1130050000000E1F5050000809698000000404291
S11300600F000000A086010000001027000000001F
S1130070E803000000006400000000000A00000023
S113008000000100000000002C76D888DC674F08CF
S113009023DFC1DFAE59E1B1B796E5E3E453C63AD5
S11300A0E651997696E8E6C28426EB898C9B62ED4C
S11300B0407C6FFCEFBC9C9F40F2BAA56FA5F49006
S11300C0055A2AF75C936B6CF9676DC11BFCE0E47D
S11300D00D47FEF520E6B500D0ED902E03009435D3
S11300E077050080841E080000204E0A000000C826
S11300F00C333333330F986E12831141EF8D211477
S1130100893BE65516CFFEE6DB18D1844B381BF746
S11301107C1D901DA4BBE424203284725E228100E5
S1130120C9F124ECA1E53D2711241FBECFE5D4E09D
S1130130DEBFCDBF10E0A0E6B0E0E8EEF3E102C020
S113014005900D92AC36B107D9F720E0ACE6B0E0EB
S113015001C01D92AB3AB207E1F707D143C950CFB2
S11301606F927F928F929F92AF92BF92CF92DF92C3
S1130170EF92FF920F931F93CF93DF938C015B0158
S11301804A01390180E090E031D5EC01B501C801A4
S113019033D88C01892BE9F0C12CD12CE12CF12C22
S11301A08FEFE81AF80AB701660F771FCE013FD622
S11301B0EC01FC01EC0DFD1D11830083B50180E011
S11301C090E01AD88C01E2E0CE0ED11C892B41F7C5
S11301D002C0E12CF12CF401D183C083F301F1823C
S11301E0E082DF91CF911F910F91FF90EF90DF900C
S11301F0CF90BF90AF909F908F907F906F90089515
S1130200FC0101900020E9F73197E81BF90B41F05C
S11302100196E230F10520F0E80FF91F32971082C1
S11302200895EF92FF920F931F93CF93DF9300D023
S113023000D000D0CDB7DEB78B011A8219821C82A0
S11302401B821E821D82DCDF9E012B5F3F4FAE01AD
S11302504F5F5F4F67E670E083DFE981FA819E01BB
S11302602B5F3F4FAE014D5F5F4F69E670E08081C9
S1130270918176DFEB80FC80F70180819181B3D698
S113028061157105F1E08F07910578F020E030E009
S113029067537F4F810991092F5F3F4F61157105A6
S11302A041E084079105A0F702C020E030E0F801A6
S11302B07183608333832283F7018281938176D6AD
S11302C0F80195838483E981FA819E012B5F3F4F76
S11302D0AE014D5F5F4F69E670E08281938140DF3C
S11302E0EB80FC80F701808191817DD661157105D9
S11302F0F1E08F07910578F020E030E067537F4FFD
S1130300810991092F5F3F4F6115710541E0840711
S11303109105A0F702C020E030E0F80177836683FE
S113032031872087F7018281938140D6F801938732
S11303308287E981FA818481958138D6F80195878D
S1130340848726960FB6F894DEBF0FBECDBFDF912B
S1130350CF911F910F91FF90EF900895A39AAB98BE
S11303600895AB9A0895AB980895CF93DF93CDB7D2
S1130370DEB72E970FB6F894DEBF0FBECDBFEEDF0B
S113038018D078940DE910E080917100882379F0F9
S1130390E8DFF8018081833729F4BE016F5F7F4F66
S11303A0C8013FDFC8017AD010927100EDCFDBDFC6
S11303B0EBCF10BC8CE089B9599A86E880BD88E9F6
S11303C08AB908951F920F920FB60F9211248F933A
S11303D09F93EF93FF938CB1909174009923A9F0AC
S11303E010927300893221F481E0809371001FC060
S11303F0E091720091E09E0F90937200F0E0E3565A
S1130400FF4F80831092710012C0883281F4E09112
S1130410720081E08E0F80937200F0E0E356FF4F8C
S113042088E2808381E08093740080937300FF915D
S1130430EF919F918F910F900FBE0F901F90189581
S11304401F920F920FB60F9211248F939F93EF93E5
S1130450FF9380916E008A3090F480916E008F5FDC
S113046080936E00E0916F00F0917000CF010196CF
S11304709093700080936F0080818CB906C081E0F6
S11304808093660010926E005598FF91EF919F91B2
S11304908F910F900FBE0F901F9018959C01909113
S11304A066009923E1F33093700020936F00232BAF
S11304B039F05D9BFECF1092660010927200559A3F
S11304C00895A0E1B0E0E6E6F2E059C37C011B0127
S11304D06A01FC0117821682838181FF2AC39E016F
S11304E02F5F3F4F3901F7019381F10193FD85910E
S11304F093FF81911F01882309F417C3853239F4CE
S113050093FD859193FF81911F01853231F4B701E9
S113051090E0CED656016501E6CF10E0512C912C27
S1130520FFE1F915D8F08B3279F038F4803279F0A4
S11305308332A1F4F92DF0612EC08D3261F0803345
S113054069F4292D21602DC0392D3260932E892D17
S11305508460982E2AC0E92DE86015C097FC2DC050
S113056020ED280F2A3088F496FE06C03AE0139F47
S1130570200D1124122F19C08AE0589E200D112439
S1130580522EE92DE0629E2E10C08E3231F496FC7C
S1130590CCC2F92DF0649F2E08C08C3621F4292D8D
S11305A02068922E02C0883641F4F10193FD8591B2
S11305B093FF81911F018111B3CF9BEB980F93306F
S11305C020F4992D9061805E07C09BE9980F9330C9
S11305D008F059C1992D9F7E96FF16E09F73992EBE
S11305E0853619F49064992E08C0863621F4392F83
S11305F03068932E02C01111115097FE07C01C33AE
S113060050F444244394410E27E00BC0183038F0D2
S113061027E017E005C027E09CE3492E02C0212F04
S1130620412C560184E0A80EB11CF6016081718151
S113063082819381042DA301FCD46C01F981FC8790
S1130640F0FF02C0F3FF06C091FC06C092FE06C094
S113065000E205C00DE203C00BE201C000E08C859E
S11306608C7019F0011143C280C297FE10C04C0C6B
S1130670FC85F4FF04C08A81813309F44A9414147C
S113068074F528E0241578F588E0482E2CC096FCF3
S11306902AC0812F90E08C159D059CF03CEFC31679
S11306A03FEFD30674F0892D8068982E0AC0E2E0EB
S11306B0F0E0EC0FFD1FE10FF11D8081803319F490
S11306C011501111F4CF97FE0EC044244394410EEF
S11306D0812F90E0C816D9062CF41C1904C04424B8
S11306E0439401C010E097FE06C01C141D0434F4AA
S11306F0C601019605C085E090E002C081E090E06B
S113070001110196112331F0212F30E02F5F3F4F6B
S1130710820F931F252D30E08217930714F4581A83
S113072001C0512C892D897041F4552031F0B70155
S113073080E290E0BDD55A94F8CF002321F0B701B0
S1130740802F90E0B5D593FC08C0552031F0B70157
S113075080E390E0ADD55A94F8CF97FE4AC04601A5
S1130760D7FE02C0812C912CC60188199909F30186
S1130770E80FF91FFE87ED87960124193109388B9C
S11307802F87012F10E01195019511093FEF831672
S1130790930621F4B7018EE290E08AD5C814D904F7
S11307A04CF08F8598898815990524F4ED85FE858C
S11307B0818101C080E3F1E08F1A91082D853E8587
S11307C02F5F3F4F3E872D878016910624F0B70197
S11307D090E06ED5DBCFC814D90441F49A819633E6
S11307E020F4953319F43C8534FF81E3B70190E09C
S11307F048C08A81813319F09C859F7E9C87B7010C
S113080090E056D5111105C094FC16C085E690E021
S113081015C0B7018EE290E04BD51E5F82E001E087
S1130820080FF301E80FF11D8081B70190E040D576
S1130830802F0113F4CFE8CF85E490E0B70138D5D9
S1130840D7FC06C0C114D10441F4EC85E4FF05C013
S1130850D194C194D1088DE201C08BE2B70190E03C
S113086027D580E32AE0C216D1042CF08F5FFAE08A
S1130870CF1AD108F7CFB70190E01AD5B701C60156
S1130880C09616D549C1833631F0833779F0833564
S113089009F052C01FC0560132E0A30EB11CF6018C
S11308A08081898301E010E0630111C05601F2E008
S11308B0AF0EB11CF601C080D18096FE03C0612F3B
S11308C070E002C06FEF7FEFC601A3D48C01F92D55
S11308D0FF7713C0560122E0A20EB11CF601C080BE
S11308E0D18096FE03C0612F70E002C06FEF7FEFEE
S11308F0C60177D48C01F92DF0689F2EF3FD18C042
S1130900852D90E00817190798F4B70180E290E06C
S1130910CFD45A94F5CFF60197FC859197FE819137
S11309206F01B70190E0C4D451105A9401501109D9
S11309300115110581F7F0C0843611F0893659F597
S1130940560197FE09C024E0A20EB11CF601608195
S11309507181828193810AC0F2E0AF0EB11CF6016D
S113096060817181072E000C880B990BF92DFF769D
S11309709F2E97FF09C090958095709561957F4F44
S11309808F4F9F4FF0689F2E2AE030E0A301CCD414
S1130990C82EC6183EC0092D853721F40F7E2AE0E3
S11309A030E01DC0097F8F3691F018F4883559F076
S11309B0BCC0803719F0883711F0B7C0006104FF5C
S11309C009C0046007C094FE08C0066006C028E0A1
S11309D030E005C020E130E002C020E132E0560101
S11309E007FF09C084E0A80EB11CF6016081718183
S11309F08281938108C0F2E0AF0EB11CF6016081E0
S1130A00718180E090E0A3018FD4C82EC6180F77BF
S1130A10902E96FE0BC0092D0E7FC11650F494FE45
S1130A200AC092FC08C0092D0E7E05C0DC2C092DDD
S1130A3003C0DC2C01C0D12E04FF0DC0FE01EC0D5F
S1130A40F11D8081803311F4097E09C002FF06C0C4
S1130A50D394D39404C0802F867809F0D39403FDF3
S1130A6010C000FF06C01C2DD51478F4150D1D19F7
S1130A700CC0D51450F4B70180E290E019D4D3949B
S1130A80F8CFD51410F45D1801C0512C04FF0FC029
S1130A90B70180E390E00CD402FF16C001FD03C04F
S1130AA088E790E002C088E590E0B7010CC0802F91
S1130AB0867851F001FF02C08BE201C080E207FD9D
S1130AC08DE2B70190E0F4D3C11630F4B70180E3AE
S1130AD090E0EED31150F8CFCA94F301EC0DF11D60
S1130AE08081B70190E0E4D3C110F6CF15C0F4E0E3
S1130AF0F51550F584E0581A93FE1EC0011125C067
S1130B002C8523FF27C006E210E0392D3071932E87
S1130B10F8018491811121C0552009F4FCCCB7015E
S1130B2080E290E0C5D35A94F7CFF701868197818C
S1130B3023C08FEF9FEF20C0B70180E290E0B8D3CD
S1130B405A945110F9CFDACF512CB701802F90E08D
S1130B50AFD3D6CF0AE210E0D8CF91108052B701BC
S1130B6090E0A6D30F5F1F4FD3CF23E0251510F4D9
S1130B7083E0C1CF512CC4CF6096E2E11CC02F9218
S1130B803F924F925F926F927F928F929F92AF9219
S1130B90BF92CF92DF92EF92FF920F931F93CF9366
S1130BA0DF93CDB7DEB7CA1BDB0B0FB6F894DEBFFD
S1130BB00FBECDBF09942A88398848885F846E8423
S1130BC07D848C849B84AA84B984C884DF80EE806D
S1130BD0FD800C811B81AA81B981CE0FD11D0FB676
S1130BE0F894DEBF0FBECDBFED0108950F931F93A0
S1130BF0CF93DF938230910510F482E090E0E0918E
S1130C00A900F091AA0020E030E0A0E0B0E0309725
S1130C1019F1408151810281138148175907C8F0A5
S1130C208417950769F4109731F012960C93129774
S1130C3013961C9327C00093A9001093AA0022C006
S1130C402115310519F04217530718F49A01BD0113
S1130C50EF01DF01F801DBCF21153105F9F0281B85
S1130C60390B2430310580F48A819B81611571052B
S1130C7021F0FB019383828304C09093AA008093A4
S1130C80A900FE01329644C0FE01E20FF31F8193D6
S1130C90919322503109398328833AC02091A700C7
S1130CA03091A800232B41F420916200309163001D
S1130CB03093A8002093A700209160003091610038
S1130CC02115310541F42DB73EB740916400509190
S1130CD06500241B350BE091A700F091A800E217F2
S1130CE0F307A0F42E1B3F0B2817390778F0AC014B
S1130CF04E5F5F4F2417350748F04E0F5F1F509328
S1130D00A8004093A7008193919302C0E0E0F0E033
S1130D10CF01DF91CF911F910F910895CF93DF936E
S1130D20009709F481C0FC01329713821282A091CA
S1130D30A900B091AA00109781F420813181820F1B
S1130D40931F2091A7003091A8002817390751F567
S1130D50F093A800E093A70067C0ED0120E030E025
S1130D60CE17DF0740F44A815B819E01411551058E
S1130D70F1F0EA01F5CFD383C28340815181840F1E
S1130D80951FC817D90759F488819981840F951F35
S1130D900296918380838A819B8193838283211528
S1130DA0310529F4F093AA00E093A9003DC0E901BC
S1130DB0FB83EA8349915991C40FD51FEC17FD07B2
S1130DC061F480819181840F951F0296E9019983D2
S1130DD08883828193819B838A83E0E0F0E012968A
S1130DE08D919C911397009719F0FD01DC01F7CFC9
S1130DF08D919C9111979D012E5F3F4F820F931F00
S1130E002091A7003091A8002817390769F430977A
S1130E1029F41092AA001092A90002C0138212822F
S1130E20B093A800A093A700DF91CF910895A0E00C
S1130E30B0E0ECE1F7E0A7CEEC01009719F4CB01A8
S1130E40D5DEB0C0FC01E60FF71F9C01225031092A
S1130E50E217F30708F4A4C0D9010D911C9111976E
S1130E6006171707A8F00530110508F497C0C80144
S1130E7004978617970708F491C002501109061BBE
S1130E80170B019311936D937C93CF0147DF86C0B9
S1130E905B01A01AB10A4C01800E911EA091A90019
S1130EA0B091AA00612C712CE12CF12C109709F45B
S1130EB046C08D919C911197A815B905B1F56C01A7
S1130EC042E0C40ED11CCA14DB0478F14C018A1828
S1130ED09B08640142E0C40ED11C1296BC90129788
S1130EE01396AC91B5E0CB16D10440F0B282A38343
S1130EF091828082D9016D937C9309C00E5F1F4F4C
S1130F00800F911FF90191838083EB2DFA2FE11457
S1130F10F10431F0D7011396FC93EE9312973EC07F
S1130F20F093AA00E093A90039C06816790608F482
S1130F303C017D0112960D90BC91A02DB7CF8091FC
S1130F40A7009091A80088169906E1F46616770622
S1130F50C8F48091600090916100009741F48DB7CE
S1130F609EB74091640050916500841B950BE8176F
S1130F70F907B0F4F093A800E093A700F901718396
S1130F8060830CC0CB0132DE7C01009749F0A801DC
S1130F90BE0136D1CE01C2DEC70104C0CE0102C0FB
S1130FA080E090E0CDB7DEB7EEE009CEFC01882703
S1130FB09927E89421912032E9F3293010F02E305A
S1130FC0C8F32B3239F02D3231F4689403C068D160
S1130FD0820F911D219120532A30C8F31EF490955D
S1130FE081959F4F08951F93FC0199278827BC0181
S1130FF0E89411911032E9F3193010F01E30C8F35F
S11310001B3249F01D3241F4689405C034D1610F9C
S1131010711D811D911D119110531A30B8F33EF4C6
S113102090958095709561957F4F8F4F9F4F1F913D
S11310300895283008F027E03327DA01990F311D8D
S113104087FD916000966105710539F432602E5F69
S11310503D9330E32A95E1F708959F3F30F08038BF
S11310607105610509F03C5F3C5F3D93913008F0E8
S11310708068911DDF93CF931F930F93FF92EF929C
S1131080192F987F9695E92F96959695E90FFF2746
S1131090E857FF4F99273327EE24FF24A701E701E0
S11310A005900894079428F4360FE71EF81E491F8C
S11310B0511D660F771F881F991F0694A1F705908D
S11310C0079428F4E70EF81E491F561FC11D770F19
S11310D0881F991F661F0694A1F70590079428F4AA
S11310E0F80E491F561FC71FD11D880F991F661F71
S11310F0771F0694A1F70590079420F4490F561F13
S1131100C71FD81F990F661F771F881F0694A9F75A
S113111084911095177041F0D695C79557954795CA
S1131120F794E7941A95C1F7EEE2F0E0689415900D
S1131130159135916591959105907FE27395E1182C
S1131140F10A430B560BC90BD009C0F7E10CF11E91
S1131150431F561FC91FD01D7EF4703311F48A95A6
S1131160E6CFE894015030F0080F0AF40027021784
S113117008F4202F2395022F7A3328F079E37D9306
S11311802A95E9F710C07D932A9589F606949795D8
S11311906795379517951794E118F10A430B560B89
S11311A0C90BD00998F023957E9173957A3308F092
S11311B070E37C932013B8F77E9170617D9330F0D7
S11311C0839571E37D9370E32A95E1F71124EF9001
S11311D0FF900F911F91CF91DF91992787FD9095F3
S11311E00895FC010590615070400110D8F7809576
S11311F090958E0F9F1F08954CE650E015D00895EA
S1131200FB01DC0102C001900D9241505040D8F71F
S11312100895FC016150704001900110D8F7809549
S113122090958E0F9F1F0895FA01A191B0810097A8
S113123019F41097E1F0CD01DC01CD010D900020EF
S113124011F4C00113C0FB012191222319F02015D0
S1131250D9F7F3CFFB012191201519F41E921196B1
S113126006C02223C1F70D900020A1F7D001FA0196
S1131270A193B0830895592F482F372F262F660F37
S1131280771F881F991F660F771F881F991F620F8A
S1131290731F841F951F660F771F881F991F08955A
S11312A07AE0979F902D879F802D910D11240895AA
S11312B00F931F93CF93DF93FB01238121FD03C081
S11312C08FEF9FEF2CC022FF16C0468157812481E7
S11312D035814217530744F4A081B1819D012F5FEA
S11312E03F4F318320838C93268137812F5F3F4F7B
S11312F03783268314C08B01EC01FB010084F18544
S1131300E02D0995892BE1F6D80116968D919C91D3
S11313101797019617969C938E931697CE01DF919B
S1131320CF911F910F910895FA01AA27283051F106
S1131330203181F1E8946F936E7F6E5F7F4F8F4F02
S11313409F4FAF4FB1E03ED0B4E03CD0670F781F61
S1131350891F9A1FA11D680F791F8A1F911DA11D46
S11313606A0F711D811D911DA11D20D009F468947F
S11313703F912AE0269F11243019305D3193DEF627
S1131380CF010895462F4770405D4193B3E00FD0DD
S1131390C9F7F6CF462F4F70405D4A3318F0495DC8
S11313A031FD4052419302D0A9F7EACFB4E0A695AB
S11313B09795879577956795BA95C9F700976105CD
S11313C0710508959B01AC010A2E06945795479523
S11313D037952795BA95C9F7620F731F841F951F18
S10B13E0A01D0895F894FFCF4D
S10F13E80000AB002000015F002C00009E
S9030000FC
